{
  "contractName": "EquistartFactory",
  "abi": [
    {
      "inputs": [
        {
          "internalType": "string",
          "name": "name",
          "type": "string"
        },
        {
          "internalType": "string",
          "name": "symbol",
          "type": "string"
        },
        {
          "internalType": "uint256",
          "name": "initialSupply",
          "type": "uint256"
        }
      ],
      "name": "createProject",
      "outputs": [],
      "stateMutability": "nonpayable",
      "type": "function"
    },
    {
      "inputs": [],
      "name": "getAllDeployedProjects",
      "outputs": [
        {
          "components": [
            {
              "internalType": "uint256",
              "name": "id",
              "type": "uint256"
            },
            {
              "internalType": "string",
              "name": "projectName",
              "type": "string"
            },
            {
              "internalType": "string",
              "name": "symbol",
              "type": "string"
            },
            {
              "internalType": "uint256",
              "name": "initialSupply",
              "type": "uint256"
            },
            {
              "internalType": "address",
              "name": "contractAddress",
              "type": "address"
            }
          ],
          "internalType": "struct EquistartFactory.projectMeta[]",
          "name": "props",
          "type": "tuple[]"
        }
      ],
      "stateMutability": "view",
      "type": "function"
    },
    {
      "inputs": [
        {
          "internalType": "uint256",
          "name": "projectId",
          "type": "uint256"
        }
      ],
      "name": "getDeployedProject",
      "outputs": [
        {
          "components": [
            {
              "internalType": "uint256",
              "name": "id",
              "type": "uint256"
            },
            {
              "internalType": "string",
              "name": "projectName",
              "type": "string"
            },
            {
              "internalType": "string",
              "name": "symbol",
              "type": "string"
            },
            {
              "internalType": "uint256",
              "name": "initialSupply",
              "type": "uint256"
            },
            {
              "internalType": "address",
              "name": "contractAddress",
              "type": "address"
            }
          ],
          "internalType": "struct EquistartFactory.projectMeta",
          "name": "",
          "type": "tuple"
        }
      ],
      "stateMutability": "view",
      "type": "function"
    }
  ],
  "bytecode": "0x608060405234801561001057600080fd5b50613d0d806100206000396000f3fe60806040523480156200001157600080fd5b5060043610620000465760003560e01c806323c55448146200004b578063b9e86f62146200006b578063f0e24a4014620000a1575b600080fd5b620000696004803603810190620000639190620008ad565b620000c3565b005b62000089600480360381019062000083919062000947565b620001c6565b60405162000098919062000ae9565b60405180910390f35b620000ab62000393565b604051620000ba919062000c64565b60405180910390f35b6000806000815480929190620000d99062000cb7565b91905055905060006001600083815260200190815260200160002090508181600001819055508481600101908051906020019062000119929190620005f9565b508381600201908051906020019062000134929190620005f9565b508281600301819055508484843360405162000150906200068a565b6200015f949392919062000d78565b604051809103906000f0801580156200017c573d6000803e3d6000fd5b508160040160006101000a81548173ffffffffffffffffffffffffffffffffffffffff021916908373ffffffffffffffffffffffffffffffffffffffff1602179055505050505050565b620001d062000698565b600160008381526020019081526020016000206040518060a0016040529081600082015481526020016001820180546200020a9062000e02565b80601f0160208091040260200160405190810160405280929190818152602001828054620002389062000e02565b8015620002895780601f106200025d5761010080835404028352916020019162000289565b820191906000526020600020905b8154815290600101906020018083116200026b57829003601f168201915b50505050508152602001600282018054620002a49062000e02565b80601f0160208091040260200160405190810160405280929190818152602001828054620002d29062000e02565b8015620003235780601f10620002f75761010080835404028352916020019162000323565b820191906000526020600020905b8154815290600101906020018083116200030557829003601f168201915b50505050508152602001600382015481526020016004820160009054906101000a900473ffffffffffffffffffffffffffffffffffffffff1673ffffffffffffffffffffffffffffffffffffffff1673ffffffffffffffffffffffffffffffffffffffff16815250509050919050565b606060005467ffffffffffffffff811115620003b457620003b36200072b565b5b604051908082528060200260200182016040528015620003f157816020015b620003dd62000698565b815260200190600190039081620003d35790505b50905060005b600054811015620005f557600160008281526020019081526020016000206040518060a0016040529081600082015481526020016001820180546200043c9062000e02565b80601f01602080910402602001604051908101604052809291908181526020018280546200046a9062000e02565b8015620004bb5780601f106200048f57610100808354040283529160200191620004bb565b820191906000526020600020905b8154815290600101906020018083116200049d57829003601f168201915b50505050508152602001600282018054620004d69062000e02565b80601f0160208091040260200160405190810160405280929190818152602001828054620005049062000e02565b8015620005555780601f10620005295761010080835404028352916020019162000555565b820191906000526020600020905b8154815290600101906020018083116200053757829003601f168201915b50505050508152602001600382015481526020016004820160009054906101000a900473ffffffffffffffffffffffffffffffffffffffff1673ffffffffffffffffffffffffffffffffffffffff1673ffffffffffffffffffffffffffffffffffffffff1681525050828281518110620005d457620005d362000e37565b5b60200260200101819052508080620005ec9062000cb7565b915050620003f7565b5090565b828054620006079062000e02565b90600052602060002090601f0160209004810192826200062b576000855562000677565b82601f106200064657805160ff191683800117855562000677565b8280016001018555821562000677579182015b828111156200067657825182559160200191906001019062000659565b5b509050620006869190620006dd565b5090565b612e718062000e6783390190565b6040518060a0016040528060008152602001606081526020016060815260200160008152602001600073ffffffffffffffffffffffffffffffffffffffff1681525090565b5b80821115620006f8576000816000905550600101620006de565b5090565b6000604051905090565b600080fd5b600080fd5b600080fd5b600080fd5b6000601f19601f8301169050919050565b7f4e487b7100000000000000000000000000000000000000000000000000000000600052604160045260246000fd5b62000765826200071a565b810181811067ffffffffffffffff821117156200078757620007866200072b565b5b80604052505050565b60006200079c620006fc565b9050620007aa82826200075a565b919050565b600067ffffffffffffffff821115620007cd57620007cc6200072b565b5b620007d8826200071a565b9050602081019050919050565b82818337600083830152505050565b60006200080b6200080584620007af565b62000790565b9050828152602081018484840111156200082a576200082962000715565b5b62000837848285620007e5565b509392505050565b600082601f83011262000857576200085662000710565b5b813562000869848260208601620007f4565b91505092915050565b6000819050919050565b620008878162000872565b81146200089357600080fd5b50565b600081359050620008a7816200087c565b92915050565b600080600060608486031215620008c957620008c862000706565b5b600084013567ffffffffffffffff811115620008ea57620008e96200070b565b5b620008f8868287016200083f565b935050602084013567ffffffffffffffff8111156200091c576200091b6200070b565b5b6200092a868287016200083f565b92505060406200093d8682870162000896565b9150509250925092565b60006020828403121562000960576200095f62000706565b5b6000620009708482850162000896565b91505092915050565b620009848162000872565b82525050565b600081519050919050565b600082825260208201905092915050565b60005b83811015620009c6578082015181840152602081019050620009a9565b83811115620009d6576000848401525b50505050565b6000620009e9826200098a565b620009f5818562000995565b935062000a07818560208601620009a6565b62000a12816200071a565b840191505092915050565b600073ffffffffffffffffffffffffffffffffffffffff82169050919050565b600062000a4a8262000a1d565b9050919050565b62000a5c8162000a3d565b82525050565b600060a08301600083015162000a7c600086018262000979565b506020830151848203602086015262000a968282620009dc565b9150506040830151848203604086015262000ab28282620009dc565b915050606083015162000ac9606086018262000979565b50608083015162000ade608086018262000a51565b508091505092915050565b6000602082019050818103600083015262000b05818462000a62565b905092915050565b600081519050919050565b600082825260208201905092915050565b6000819050602082019050919050565b600060a08301600083015162000b53600086018262000979565b506020830151848203602086015262000b6d8282620009dc565b9150506040830151848203604086015262000b898282620009dc565b915050606083015162000ba0606086018262000979565b50608083015162000bb5608086018262000a51565b508091505092915050565b600062000bce838362000b39565b905092915050565b6000602082019050919050565b600062000bf08262000b0d565b62000bfc818562000b18565b93508360208202850162000c108562000b29565b8060005b8581101562000c52578484038952815162000c30858262000bc0565b945062000c3d8362000bd6565b925060208a0199505060018101905062000c14565b50829750879550505050505092915050565b6000602082019050818103600083015262000c80818462000be3565b905092915050565b7f4e487b7100000000000000000000000000000000000000000000000000000000600052601160045260246000fd5b600062000cc48262000872565b91507fffffffffffffffffffffffffffffffffffffffffffffffffffffffffffffffff820362000cf95762000cf862000c88565b5b600182019050919050565b600082825260208201905092915050565b600062000d22826200098a565b62000d2e818562000d04565b935062000d40818560208601620009a6565b62000d4b816200071a565b840191505092915050565b62000d618162000872565b82525050565b62000d728162000a3d565b82525050565b6000608082019050818103600083015262000d94818762000d15565b9050818103602083015262000daa818662000d15565b905062000dbb604083018562000d56565b62000dca606083018462000d67565b95945050505050565b7f4e487b7100000000000000000000000000000000000000000000000000000000600052602260045260246000fd5b6000600282049050600182168062000e1b57607f821691505b60208210810362000e315762000e3062000dd3565b5b50919050565b7f4e487b7100000000000000000000000000000000000000000000000000000000600052603260045260246000fdfe60806040523480156200001157600080fd5b5060405162002e7138038062002e718339818101604052810190620000379190620004f8565b83838160039080519060200190620000519291906200020b565b5080600490805190602001906200006a9291906200020b565b5050506200007f81836200008960201b60201c565b5050505062000749565b600073ffffffffffffffffffffffffffffffffffffffff168273ffffffffffffffffffffffffffffffffffffffff1603620000fb576040517f08c379a0000000000000000000000000000000000000000000000000000000008152600401620000f29062000609565b60405180910390fd5b6200010f600083836200020160201b60201c565b80600260008282546200012391906200065a565b92505081905550806000808473ffffffffffffffffffffffffffffffffffffffff1673ffffffffffffffffffffffffffffffffffffffff16815260200190815260200160002060008282546200017a91906200065a565b925050819055508173ffffffffffffffffffffffffffffffffffffffff16600073ffffffffffffffffffffffffffffffffffffffff167fddf252ad1be2c89b69c2b068fc378daa952ba7f163c4a11628f55a4df523b3ef83604051620001e19190620006c8565b60405180910390a3620001fd600083836200020660201b60201c565b5050565b505050565b505050565b828054620002199062000714565b90600052602060002090601f0160209004810192826200023d576000855562000289565b82601f106200025857805160ff191683800117855562000289565b8280016001018555821562000289579182015b82811115620002885782518255916020019190600101906200026b565b5b5090506200029891906200029c565b5090565b5b80821115620002b75760008160009055506001016200029d565b5090565b6000604051905090565b600080fd5b600080fd5b600080fd5b600080fd5b6000601f19601f8301169050919050565b7f4e487b7100000000000000000000000000000000000000000000000000000000600052604160045260246000fd5b6200032482620002d9565b810181811067ffffffffffffffff82111715620003465762000345620002ea565b5b80604052505050565b60006200035b620002bb565b905062000369828262000319565b919050565b600067ffffffffffffffff8211156200038c576200038b620002ea565b5b6200039782620002d9565b9050602081019050919050565b60005b83811015620003c4578082015181840152602081019050620003a7565b83811115620003d4576000848401525b50505050565b6000620003f1620003eb846200036e565b6200034f565b90508281526020810184848401111562000410576200040f620002d4565b5b6200041d848285620003a4565b509392505050565b600082601f8301126200043d576200043c620002cf565b5b81516200044f848260208601620003da565b91505092915050565b6000819050919050565b6200046d8162000458565b81146200047957600080fd5b50565b6000815190506200048d8162000462565b92915050565b600073ffffffffffffffffffffffffffffffffffffffff82169050919050565b6000620004c08262000493565b9050919050565b620004d281620004b3565b8114620004de57600080fd5b50565b600081519050620004f281620004c7565b92915050565b60008060008060808587031215620005155762000514620002c5565b5b600085015167ffffffffffffffff811115620005365762000535620002ca565b5b620005448782880162000425565b945050602085015167ffffffffffffffff811115620005685762000567620002ca565b5b620005768782880162000425565b935050604062000589878288016200047c565b92505060606200059c87828801620004e1565b91505092959194509250565b600082825260208201905092915050565b7f45524332303a206d696e7420746f20746865207a65726f206164647265737300600082015250565b6000620005f1601f83620005a8565b9150620005fe82620005b9565b602082019050919050565b600060208201905081810360008301526200062481620005e2565b9050919050565b7f4e487b7100000000000000000000000000000000000000000000000000000000600052601160045260246000fd5b6000620006678262000458565b9150620006748362000458565b9250827fffffffffffffffffffffffffffffffffffffffffffffffffffffffffffffffff03821115620006ac57620006ab6200062b565b5b828201905092915050565b620006c28162000458565b82525050565b6000602082019050620006df6000830184620006b7565b92915050565b7f4e487b7100000000000000000000000000000000000000000000000000000000600052602260045260246000fd5b600060028204905060018216806200072d57607f821691505b602082108103620007435762000742620006e5565b5b50919050565b61271880620007596000396000f3fe608060405234801561001057600080fd5b50600436106101005760003560e01c806370a0823111610097578063a9059cbb11610066578063a9059cbb146102c3578063cceb68f5146102f3578063dd62ed3e14610311578063fd187bfe1461034157610100565b806370a082311461022757806372fe1c031461025757806395d89b4114610275578063a457c2d71461029357610100565b8063313ce567116100d3578063313ce567146101a157806339509351146101bf57806356c867f5146101ef5780635efa7ba51461020b57610100565b806306fdde0314610105578063095ea7b31461012357806318160ddd1461015357806323b872dd14610171575b600080fd5b61010d610371565b60405161011a9190611702565b60405180910390f35b61013d600480360381019061013891906117cc565b610403565b60405161014a9190611827565b60405180910390f35b61015b610426565b6040516101689190611851565b60405180910390f35b61018b6004803603810190610186919061186c565b610430565b6040516101989190611827565b60405180910390f35b6101a961045f565b6040516101b691906118db565b60405180910390f35b6101d960048036038101906101d491906117cc565b610468565b6040516101e69190611827565b60405180910390f35b61020960048036038101906102049190611a8b565b61049f565b005b61022560048036038101906102209190611b33565b61062c565b005b610241600480360381019061023c9190611b73565b610776565b60405161024e9190611851565b60405180910390f35b61025f6107be565b60405161026c9190611c5e565b60405180910390f35b61027d610853565b60405161028a9190611702565b60405180910390f35b6102ad60048036038101906102a891906117cc565b6108e5565b6040516102ba9190611827565b60405180910390f35b6102dd60048036038101906102d891906117cc565b61095c565b6040516102ea9190611827565b60405180910390f35b6102fb61097f565b6040516103089190611e61565b60405180910390f35b61032b60048036038101906103269190611e83565b610bf7565b6040516103389190611851565b60405180910390f35b61035b60048036038101906103569190611ec3565b610c7e565b6040516103689190611fa7565b60405180910390f35b60606003805461038090611ff8565b80601f01602080910402602001604051908101604052809291908181526020018280546103ac90611ff8565b80156103f95780601f106103ce576101008083540402835291602001916103f9565b820191906000526020600020905b8154815290600101906020018083116103dc57829003601f168201915b5050505050905090565b60008061040e610e69565b905061041b818585610e71565b600191505092915050565b6000600254905090565b60008061043b610e69565b905061044885828561103a565b6104538585856110c6565b60019150509392505050565b60006012905090565b600080610473610e69565b90506104948185856104858589610bf7565b61048f9190612058565b610e71565b600191505092915050565b6040518060600160405280603581526020016126ae6035913960146104c2610426565b6104cc91906120dd565b6104d533610776565b118190610518576040517f08c379a000000000000000000000000000000000000000000000000000000000815260040161050f9190611702565b60405180910390fd5b5060006005600081548092919061052e9061210e565b91905055905060006006600083815260200190815260200160002090508181600001819055508581600101908051906020019061056c9291906114e3565b508484826002019190610580929190611569565b5062093a8063ffffffff16426105969190612058565b8160040181905550338160030160006101000a81548173ffffffffffffffffffffffffffffffffffffffff021916908373ffffffffffffffffffffffffffffffffffffffff1602179055503373ffffffffffffffffffffffffffffffffffffffff167fe7d91fba94441fd47fdbdbeb6ae04b96f865f0e87aab37919896be01d2fd726d60405160405180910390a2505050505050565b6040518060600160405280602c8152602001612682602c9139601461064f610426565b61065991906120dd565b61066233610776565b1181906106a5576040517f08c379a000000000000000000000000000000000000000000000000000000000815260040161069c9190611702565b60405180910390fd5b5060006006600085815260200190815260200160002090506106c681611345565b82156106eb578060050160008154809291906106e19061210e565b9190505550610706565b8060060160008154809291906107009061210e565b91905055505b600760003373ffffffffffffffffffffffffffffffffffffffff1673ffffffffffffffffffffffffffffffffffffffff1681526020019081526020016000208160000154908060018154018082558091505060019003906000526020600020016000909190919091505550505050565b60008060008373ffffffffffffffffffffffffffffffffffffffff1673ffffffffffffffffffffffffffffffffffffffff168152602001908152602001600020549050919050565b6060600760003373ffffffffffffffffffffffffffffffffffffffff1673ffffffffffffffffffffffffffffffffffffffff16815260200190815260200160002080548060200260200160405190810160405280929190818152602001828054801561084957602002820191906000526020600020905b815481526020019060010190808311610835575b5050505050905090565b60606004805461086290611ff8565b80601f016020809104026020016040519081016040528092919081815260200182805461088e90611ff8565b80156108db5780601f106108b0576101008083540402835291602001916108db565b820191906000526020600020905b8154815290600101906020018083116108be57829003601f168201915b5050505050905090565b6000806108f0610e69565b905060006108fe8286610bf7565b905083811015610943576040517f08c379a000000000000000000000000000000000000000000000000000000000815260040161093a906121c8565b60405180910390fd5b6109508286868403610e71565b60019250505092915050565b600080610967610e69565b90506109748185856110c6565b600191505092915050565b606060055467ffffffffffffffff81111561099d5761099c611900565b5b6040519080825280602002602001820160405280156109d657816020015b6109c36115ef565b8152602001906001900390816109bb5790505b50905060005b600554811015610bf357600660008281526020019081526020016000206040518061010001604052908160008201548152602001600182018054610a1f90611ff8565b80601f0160208091040260200160405190810160405280929190818152602001828054610a4b90611ff8565b8015610a985780601f10610a6d57610100808354040283529160200191610a98565b820191906000526020600020905b815481529060010190602001808311610a7b57829003601f168201915b50505050508152602001600282018054610ab190611ff8565b80601f0160208091040260200160405190810160405280929190818152602001828054610add90611ff8565b8015610b2a5780601f10610aff57610100808354040283529160200191610b2a565b820191906000526020600020905b815481529060010190602001808311610b0d57829003601f168201915b505050505081526020016003820160009054906101000a900473ffffffffffffffffffffffffffffffffffffffff1673ffffffffffffffffffffffffffffffffffffffff1673ffffffffffffffffffffffffffffffffffffffff1681526020016004820154815260200160058201548152602001600682015481526020016007820160009054906101000a900460ff161515151581525050828281518110610bd557610bd46121e8565b5b60200260200101819052508080610beb9061210e565b9150506109dc565b5090565b6000600160008473ffffffffffffffffffffffffffffffffffffffff1673ffffffffffffffffffffffffffffffffffffffff16815260200190815260200160002060008373ffffffffffffffffffffffffffffffffffffffff1673ffffffffffffffffffffffffffffffffffffffff16815260200190815260200160002054905092915050565b610c866115ef565b600660008381526020019081526020016000206040518061010001604052908160008201548152602001600182018054610cbf90611ff8565b80601f0160208091040260200160405190810160405280929190818152602001828054610ceb90611ff8565b8015610d385780601f10610d0d57610100808354040283529160200191610d38565b820191906000526020600020905b815481529060010190602001808311610d1b57829003601f168201915b50505050508152602001600282018054610d5190611ff8565b80601f0160208091040260200160405190810160405280929190818152602001828054610d7d90611ff8565b8015610dca5780601f10610d9f57610100808354040283529160200191610dca565b820191906000526020600020905b815481529060010190602001808311610dad57829003601f168201915b505050505081526020016003820160009054906101000a900473ffffffffffffffffffffffffffffffffffffffff1673ffffffffffffffffffffffffffffffffffffffff1673ffffffffffffffffffffffffffffffffffffffff1681526020016004820154815260200160058201548152602001600682015481526020016007820160009054906101000a900460ff1615151515815250509050919050565b600033905090565b600073ffffffffffffffffffffffffffffffffffffffff168373ffffffffffffffffffffffffffffffffffffffff1603610ee0576040517f08c379a0000000000000000000000000000000000000000000000000000000008152600401610ed790612289565b60405180910390fd5b600073ffffffffffffffffffffffffffffffffffffffff168273ffffffffffffffffffffffffffffffffffffffff1603610f4f576040517f08c379a0000000000000000000000000000000000000000000000000000000008152600401610f469061231b565b60405180910390fd5b80600160008573ffffffffffffffffffffffffffffffffffffffff1673ffffffffffffffffffffffffffffffffffffffff16815260200190815260200160002060008473ffffffffffffffffffffffffffffffffffffffff1673ffffffffffffffffffffffffffffffffffffffff168152602001908152602001600020819055508173ffffffffffffffffffffffffffffffffffffffff168373ffffffffffffffffffffffffffffffffffffffff167f8c5be1e5ebec7d5bd14f71427d1e84f3dd0314c0f7b2291e5b200ac8c7c3b9258360405161102d9190611851565b60405180910390a3505050565b60006110468484610bf7565b90507fffffffffffffffffffffffffffffffffffffffffffffffffffffffffffffffff81146110c057818110156110b2576040517f08c379a00000000000000000000000000000000000000000000000000000000081526004016110a990612387565b60405180910390fd5b6110bf8484848403610e71565b5b50505050565b600073ffffffffffffffffffffffffffffffffffffffff168373ffffffffffffffffffffffffffffffffffffffff1603611135576040517f08c379a000000000000000000000000000000000000000000000000000000000815260040161112c90612419565b60405180910390fd5b600073ffffffffffffffffffffffffffffffffffffffff168273ffffffffffffffffffffffffffffffffffffffff16036111a4576040517f08c379a000000000000000000000000000000000000000000000000000000000815260040161119b906124ab565b60405180910390fd5b6111af8383836114d9565b60008060008573ffffffffffffffffffffffffffffffffffffffff1673ffffffffffffffffffffffffffffffffffffffff16815260200190815260200160002054905081811015611235576040517f08c379a000000000000000000000000000000000000000000000000000000000815260040161122c9061253d565b60405180910390fd5b8181036000808673ffffffffffffffffffffffffffffffffffffffff1673ffffffffffffffffffffffffffffffffffffffff16815260200190815260200160002081905550816000808573ffffffffffffffffffffffffffffffffffffffff1673ffffffffffffffffffffffffffffffffffffffff16815260200190815260200160002060008282546112c89190612058565b925050819055508273ffffffffffffffffffffffffffffffffffffffff168473ffffffffffffffffffffffffffffffffffffffff167fddf252ad1be2c89b69c2b068fc378daa952ba7f163c4a11628f55a4df523b3ef8460405161132c9190611851565b60405180910390a361133f8484846114de565b50505050565b8060070160009054906101000a900460ff1680611366575042816004015411155b156113c35760018160070160006101000a81548160ff0219169083151502179055506040517f08c379a00000000000000000000000000000000000000000000000000000000081526004016113ba906125cf565b60405180910390fd5b6000600760003373ffffffffffffffffffffffffffffffffffffffff1673ffffffffffffffffffffffffffffffffffffffff16815260200190815260200160002080548060200260200160405190810160405280929190818152602001828054801561144e57602002820191906000526020600020905b81548152602001906001019080831161143a575b5050505050905060005b81518110156114d457818181518110611474576114736121e8565b5b60200260200101518360000154036114c1576040517f08c379a00000000000000000000000000000000000000000000000000000000081526004016114b890612661565b60405180910390fd5b80806114cc9061210e565b915050611458565b505050565b505050565b505050565b8280546114ef90611ff8565b90600052602060002090601f0160209004810192826115115760008555611558565b82601f1061152a57805160ff1916838001178555611558565b82800160010185558215611558579182015b8281111561155757825182559160200191906001019061153c565b5b509050611565919061164c565b5090565b82805461157590611ff8565b90600052602060002090601f01602090048101928261159757600085556115de565b82601f106115b057803560ff19168380011785556115de565b828001600101855582156115de579182015b828111156115dd5782358255916020019190600101906115c2565b5b5090506115eb919061164c565b5090565b604051806101000160405280600081526020016060815260200160608152602001600073ffffffffffffffffffffffffffffffffffffffff1681526020016000815260200160008152602001600081526020016000151581525090565b5b8082111561166557600081600090555060010161164d565b5090565b600081519050919050565b600082825260208201905092915050565b60005b838110156116a3578082015181840152602081019050611688565b838111156116b2576000848401525b50505050565b6000601f19601f8301169050919050565b60006116d482611669565b6116de8185611674565b93506116ee818560208601611685565b6116f7816116b8565b840191505092915050565b6000602082019050818103600083015261171c81846116c9565b905092915050565b6000604051905090565b600080fd5b600080fd5b600073ffffffffffffffffffffffffffffffffffffffff82169050919050565b600061176382611738565b9050919050565b61177381611758565b811461177e57600080fd5b50565b6000813590506117908161176a565b92915050565b6000819050919050565b6117a981611796565b81146117b457600080fd5b50565b6000813590506117c6816117a0565b92915050565b600080604083850312156117e3576117e261172e565b5b60006117f185828601611781565b9250506020611802858286016117b7565b9150509250929050565b60008115159050919050565b6118218161180c565b82525050565b600060208201905061183c6000830184611818565b92915050565b61184b81611796565b82525050565b60006020820190506118666000830184611842565b92915050565b6000806000606084860312156118855761188461172e565b5b600061189386828701611781565b93505060206118a486828701611781565b92505060406118b5868287016117b7565b9150509250925092565b600060ff82169050919050565b6118d5816118bf565b82525050565b60006020820190506118f060008301846118cc565b92915050565b600080fd5b600080fd5b7f4e487b7100000000000000000000000000000000000000000000000000000000600052604160045260246000fd5b611938826116b8565b810181811067ffffffffffffffff8211171561195757611956611900565b5b80604052505050565b600061196a611724565b9050611976828261192f565b919050565b600067ffffffffffffffff82111561199657611995611900565b5b61199f826116b8565b9050602081019050919050565b82818337600083830152505050565b60006119ce6119c98461197b565b611960565b9050828152602081018484840111156119ea576119e96118fb565b5b6119f58482856119ac565b509392505050565b600082601f830112611a1257611a116118f6565b5b8135611a228482602086016119bb565b91505092915050565b600080fd5b600080fd5b60008083601f840112611a4b57611a4a6118f6565b5b8235905067ffffffffffffffff811115611a6857611a67611a2b565b5b602083019150836001820283011115611a8457611a83611a30565b5b9250929050565b600080600060408486031215611aa457611aa361172e565b5b600084013567ffffffffffffffff811115611ac257611ac1611733565b5b611ace868287016119fd565b935050602084013567ffffffffffffffff811115611aef57611aee611733565b5b611afb86828701611a35565b92509250509250925092565b611b108161180c565b8114611b1b57600080fd5b50565b600081359050611b2d81611b07565b92915050565b60008060408385031215611b4a57611b4961172e565b5b6000611b58858286016117b7565b9250506020611b6985828601611b1e565b9150509250929050565b600060208284031215611b8957611b8861172e565b5b6000611b9784828501611781565b91505092915050565b600081519050919050565b600082825260208201905092915050565b6000819050602082019050919050565b611bd581611796565b82525050565b6000611be78383611bcc565b60208301905092915050565b6000602082019050919050565b6000611c0b82611ba0565b611c158185611bab565b9350611c2083611bbc565b8060005b83811015611c51578151611c388882611bdb565b9750611c4383611bf3565b925050600181019050611c24565b5085935050505092915050565b60006020820190508181036000830152611c788184611c00565b905092915050565b600081519050919050565b600082825260208201905092915050565b6000819050602082019050919050565b600082825260208201905092915050565b6000611cc882611669565b611cd28185611cac565b9350611ce2818560208601611685565b611ceb816116b8565b840191505092915050565b611cff81611758565b82525050565b611d0e8161180c565b82525050565b600061010083016000830151611d2d6000860182611bcc565b5060208301518482036020860152611d458282611cbd565b91505060408301518482036040860152611d5f8282611cbd565b9150506060830151611d746060860182611cf6565b506080830151611d876080860182611bcc565b5060a0830151611d9a60a0860182611bcc565b5060c0830151611dad60c0860182611bcc565b5060e0830151611dc060e0860182611d05565b508091505092915050565b6000611dd78383611d14565b905092915050565b6000602082019050919050565b6000611df782611c80565b611e018185611c8b565b935083602082028501611e1385611c9c565b8060005b85811015611e4f5784840389528151611e308582611dcb565b9450611e3b83611ddf565b925060208a01995050600181019050611e17565b50829750879550505050505092915050565b60006020820190508181036000830152611e7b8184611dec565b905092915050565b60008060408385031215611e9a57611e9961172e565b5b6000611ea885828601611781565b9250506020611eb985828601611781565b9150509250929050565b600060208284031215611ed957611ed861172e565b5b6000611ee7848285016117b7565b91505092915050565b600061010083016000830151611f096000860182611bcc565b5060208301518482036020860152611f218282611cbd565b91505060408301518482036040860152611f3b8282611cbd565b9150506060830151611f506060860182611cf6565b506080830151611f636080860182611bcc565b5060a0830151611f7660a0860182611bcc565b5060c0830151611f8960c0860182611bcc565b5060e0830151611f9c60e0860182611d05565b508091505092915050565b60006020820190508181036000830152611fc18184611ef0565b905092915050565b7f4e487b7100000000000000000000000000000000000000000000000000000000600052602260045260246000fd5b6000600282049050600182168061201057607f821691505b60208210810361202357612022611fc9565b5b50919050565b7f4e487b7100000000000000000000000000000000000000000000000000000000600052601160045260246000fd5b600061206382611796565b915061206e83611796565b9250827fffffffffffffffffffffffffffffffffffffffffffffffffffffffffffffffff038211156120a3576120a2612029565b5b828201905092915050565b7f4e487b7100000000000000000000000000000000000000000000000000000000600052601260045260246000fd5b60006120e882611796565b91506120f383611796565b925082612103576121026120ae565b5b828204905092915050565b600061211982611796565b91507fffffffffffffffffffffffffffffffffffffffffffffffffffffffffffffffff820361214b5761214a612029565b5b600182019050919050565b7f45524332303a2064656372656173656420616c6c6f77616e63652062656c6f7760008201527f207a65726f000000000000000000000000000000000000000000000000000000602082015250565b60006121b2602583611674565b91506121bd82612156565b604082019050919050565b600060208201905081810360008301526121e1816121a5565b9050919050565b7f4e487b7100000000000000000000000000000000000000000000000000000000600052603260045260246000fd5b7f45524332303a20617070726f76652066726f6d20746865207a65726f2061646460008201527f7265737300000000000000000000000000000000000000000000000000000000602082015250565b6000612273602483611674565b915061227e82612217565b604082019050919050565b600060208201905081810360008301526122a281612266565b9050919050565b7f45524332303a20617070726f766520746f20746865207a65726f20616464726560008201527f7373000000000000000000000000000000000000000000000000000000000000602082015250565b6000612305602283611674565b9150612310826122a9565b604082019050919050565b60006020820190508181036000830152612334816122f8565b9050919050565b7f45524332303a20696e73756666696369656e7420616c6c6f77616e6365000000600082015250565b6000612371601d83611674565b915061237c8261233b565b602082019050919050565b600060208201905081810360008301526123a081612364565b9050919050565b7f45524332303a207472616e736665722066726f6d20746865207a65726f20616460008201527f6472657373000000000000000000000000000000000000000000000000000000602082015250565b6000612403602583611674565b915061240e826123a7565b604082019050919050565b60006020820190508181036000830152612432816123f6565b9050919050565b7f45524332303a207472616e7366657220746f20746865207a65726f206164647260008201527f6573730000000000000000000000000000000000000000000000000000000000602082015250565b6000612495602383611674565b91506124a082612439565b604082019050919050565b600060208201905081810360008301526124c481612488565b9050919050565b7f45524332303a207472616e7366657220616d6f756e742065786365656473206260008201527f616c616e63650000000000000000000000000000000000000000000000000000602082015250565b6000612527602683611674565b9150612532826124cb565b604082019050919050565b600060208201905081810360008301526125568161251a565b9050919050565b7f566f74696e6720506572696f642068617320706173736564206f6e207468697360008201527f2050726f706f73616c0000000000000000000000000000000000000000000000602082015250565b60006125b9602983611674565b91506125c48261255d565b604082019050919050565b600060208201905081810360008301526125e8816125ac565b9050919050565b7f596f75206861766520616c726561647920766f746564206f6e2074686973207060008201527f726f706f73616c00000000000000000000000000000000000000000000000000602082015250565b600061264b602783611674565b9150612656826125ef565b604082019050919050565b6000602082019050818103600083015261267a8161263e565b905091905056fe4f6e6c7920626f617264206d656d64626572207769746820746f6b656e203e2035252063616e20766f7434654f6e6c7920626f617264206d656d626572207769746820746f6b656e203e2035252063616e206372656174652070726f706f73616ca264697066735822122061f313ba738d0740db43879dacef0b4c2a7139d39f3f5afa31b1b01deeb7041c64736f6c634300080e0033a26469706673582212204c0af2c3554241461375774a6396081ed1cc3a82f0a23ae3feacbc42dcd4ea5c64736f6c634300080e0033",
  "immutableReferences": {},
  "source": "// SPDX-License-Identifier: MIT\npragma solidity ^0.8.6;\n\n//Check openzeppelin for learning more about input variables like Name, Token Amount, etc. \n//https://docs.openzeppelin.com/contracts/4.x/wizard\n\n// import \"@openzeppelin/contracts/token/ERC20/presets/ERC20PresetMinterPauser.sol\";\nimport \"./EquistartProject.sol\";\n\ncontract EquistartFactory {\n    \n\n    uint numOfProjects;\n\n    struct projectMeta{\n        uint256 id;\n        string projectName;\n        string symbol;\n        uint256 initialSupply;\n        address contractAddress;\n    }\n\n    // projectMeta[] public deployedProjects;\n    mapping(uint => projectMeta) private deployedProjects;\n    \n    function createProject(string memory name, string memory symbol, uint initialSupply) public {\n        uint projectId = numOfProjects++;\n        projectMeta storage project = deployedProjects[projectId];\n        project.id = projectId;\n        project.projectName = name;\n        project.symbol = symbol;\n        project.initialSupply = initialSupply;\n        project.contractAddress = address(new EquistartProject(name, symbol, initialSupply,  msg.sender));\n\n        // deployedProjects.push(newProject);\n    }\n    \n    function getAllDeployedProjects () public view returns (projectMeta[] memory props){\n        // return deployedProjects;\n        props = new projectMeta[](numOfProjects);\n        \n        for (uint256 index =0; index< numOfProjects; index++){\n            props[index] = deployedProjects[index];\n        }\n    }\n\n    function getDeployedProject(uint256 projectId) public view returns (projectMeta memory){\n        return deployedProjects[projectId];\n    }\n}\n",
  "sourcePath": "/Users/yaksheshgupta/Desktop/EquiStart/contracts/EquistartFactory.sol",
  "compiler": {
    "name": "solc",
    "version": "0.8.14+commit.80d49f37.Emscripten.clang"
  },
  "schemaVersion": "3.4.7",
  "updatedAt": "2022-07-28T18:34:35.866Z",
  "devdoc": {
    "kind": "dev",
    "methods": {},
    "version": 1
  },
  "userdoc": {
    "kind": "user",
    "methods": {},
    "version": 1
  }
}